{
  "contractName": "ChainsawClub",
  "abi": [
    {
      "constant": true,
      "inputs": [],
      "name": "getUsername",
      "outputs": [
        {
          "name": "",
          "type": "string"
        }
      ],
      "payable": false,
      "stateMutability": "view",
      "type": "function"
    },
    {
      "constant": false,
      "inputs": [
        {
          "name": "_value",
          "type": "string"
        }
      ],
      "name": "setUsername",
      "outputs": [],
      "payable": false,
      "stateMutability": "nonpayable",
      "type": "function"
    },
    {
      "constant": true,
      "inputs": [],
      "name": "getPassword",
      "outputs": [
        {
          "name": "",
          "type": "string"
        }
      ],
      "payable": false,
      "stateMutability": "view",
      "type": "function"
    },
    {
      "constant": false,
      "inputs": [
        {
          "name": "_value",
          "type": "string"
        }
      ],
      "name": "setPassword",
      "outputs": [],
      "payable": false,
      "stateMutability": "nonpayable",
      "type": "function"
    },
    {
      "constant": true,
      "inputs": [],
      "name": "getApprove",
      "outputs": [
        {
          "name": "",
          "type": "bool"
        }
      ],
      "payable": false,
      "stateMutability": "view",
      "type": "function"
    },
    {
      "constant": false,
      "inputs": [
        {
          "name": "_value",
          "type": "bool"
        }
      ],
      "name": "setApprove",
      "outputs": [],
      "payable": false,
      "stateMutability": "nonpayable",
      "type": "function"
    },
    {
      "constant": true,
      "inputs": [],
      "name": "getSupply",
      "outputs": [
        {
          "name": "",
          "type": "uint256"
        }
      ],
      "payable": false,
      "stateMutability": "view",
      "type": "function"
    },
    {
      "constant": true,
      "inputs": [],
      "name": "getBalance",
      "outputs": [
        {
          "name": "",
          "type": "uint256"
        }
      ],
      "payable": false,
      "stateMutability": "view",
      "type": "function"
    },
    {
      "constant": false,
      "inputs": [
        {
          "name": "_value",
          "type": "uint256"
        }
      ],
      "name": "transfer",
      "outputs": [],
      "payable": false,
      "stateMutability": "nonpayable",
      "type": "function"
    },
    {
      "constant": false,
      "inputs": [],
      "name": "reset",
      "outputs": [],
      "payable": false,
      "stateMutability": "nonpayable",
      "type": "function"
    }
  ],
  "bytecode": "0x60806040526040805190810160405280600681526020017f6e6f626f647900000000000000000000000000000000000000000000000000008152506000908051906020019061004f9291906100d4565b506040805190810160405280602081526020017f37623435356361316666636239663338323863666464653461333936313339658152506001908051906020019061009b9291906100d4565b506000600260006101000a81548160ff0219169083151502179055506103e860035560006004553480156100ce57600080fd5b50610179565b828054600181600116156101000203166002900490600052602060002090601f016020900481019282601f1061011557805160ff1916838001178555610143565b82800160010185558215610143579182015b82811115610142578251825591602001919060010190610127565b5b5090506101509190610154565b5090565b61017691905b8082111561017257600081600090555060010161015a565b5090565b90565b6106db806101886000396000f3006080604052600436106100a4576000357c0100000000000000000000000000000000000000000000000000000000900463ffffffff16806312065fe0146100a957806312514bba146100d4578063290bb45314610101578063681f3e6d1461016a5780636c9c2faf146101fa5780637b30721714610225578063aa1199ea14610254578063cc8e239414610283578063d826f88f14610313578063ed59313a1461032a575b600080fd5b3480156100b557600080fd5b506100be610393565b6040518082815260200191505060405180910390f35b3480156100e057600080fd5b506100ff6004803603810190808035906020019092919050505061039d565b005b34801561010d57600080fd5b50610168600480360381019080803590602001908201803590602001908080601f01602080910402602001604051908101604052809392919081815260200183838082843782019150505050505091929192905050506103d8565b005b34801561017657600080fd5b5061017f6103f2565b6040518080602001828103825283818151815260200191508051906020019080838360005b838110156101bf5780820151818401526020810190506101a4565b50505050905090810190601f1680156101ec5780820380516001836020036101000a031916815260200191505b509250505060405180910390f35b34801561020657600080fd5b5061020f610494565b6040518082815260200191505060405180910390f35b34801561023157600080fd5b5061023a61049e565b604051808215151515815260200191505060405180910390f35b34801561026057600080fd5b506102816004803603810190808035151590602001909291905050506104b5565b005b34801561028f57600080fd5b506102986104d2565b6040518080602001828103825283818151815260200191508051906020019080838360005b838110156102d85780820151818401526020810190506102bd565b50505050905090810190601f1680156103055780820380516001836020036101000a031916815260200191505b509250505060405180910390f35b34801561031f57600080fd5b50610328610574565b005b34801561033657600080fd5b50610391600480360381019080803590602001908201803590602001908080601f01602080910402602001604051908101604052809392919081815260200183838082843782019150505050505091929192905050506105f0565b005b6000600454905090565b6000811180156103af57506003548111155b156103d55780600360008282540392505081905550806004600082825401925050819055505b50565b80600190805190602001906103ee92919061060a565b5050565b606060008054600181600116156101000203166002900480601f01602080910402602001604051908101604052809291908181526020018280546001816001161561010002031660029004801561048a5780601f1061045f5761010080835404028352916020019161048a565b820191906000526020600020905b81548152906001019060200180831161046d57829003601f168201915b5050505050905090565b6000600354905090565b6000600260009054906101000a900460ff16905090565b80600260006101000a81548160ff02191690831515021790555050565b606060018054600181600116156101000203166002900480601f01602080910402602001604051908101604052809291908181526020018280546001816001161561010002031660029004801561056a5780601f1061053f5761010080835404028352916020019161056a565b820191906000526020600020905b81548152906001019060200180831161054d57829003601f168201915b5050505050905090565b60206040519081016040528060008152506000908051906020019061059a92919061060a565b506020604051908101604052806000815250600190805190602001906105c192919061060a565b5060006004819055506103e86003819055506000600260006101000a81548160ff021916908315150217905550565b806000908051906020019061060692919061060a565b5050565b828054600181600116156101000203166002900490600052602060002090601f016020900481019282601f1061064b57805160ff1916838001178555610679565b82800160010185558215610679579182015b8281111561067857825182559160200191906001019061065d565b5b509050610686919061068a565b5090565b6106ac91905b808211156106a8576000816000905550600101610690565b5090565b905600a165627a7a723058206111cc4189c2422cdf63d3b7eee439d91d39a4fee6786a615ef66d1619820dd40029",
  "source": "pragma solidity ^0.4.22;\n\ncontract ChainsawClub {\n\n  string username = 'nobody';\n  string password = '7b455ca1ffcb9f3828cfdde4a396139e';\n  bool approve = false;\n  uint totalSupply = 1000;\n  uint userBalance = 0;\n\n  function getUsername() public view returns (string) {\n      return username;\n  }\n  function setUsername(string _value) public {\n      username = _value;\n  }\n  function getPassword() public view returns (string) {\n      return password;\n  }\n  function setPassword(string _value) public {\n      password = _value;\n  }\n  function getApprove() public view returns (bool) {\n      return approve;\n  }\n  function setApprove(bool _value) public {\n      approve = _value;\n  }\n  function getSupply() public view returns (uint) {\n      return totalSupply;\n  }\n  function getBalance() public view returns (uint) {\n      return userBalance;\n  }\n  function transfer(uint _value) public {\n      if (_value > 0 && _value <= totalSupply) {\n          totalSupply -= _value;\n          userBalance += _value;\n      }\n  }\n  function reset() public {\n      username = '';\n      password = '';\n      userBalance = 0;\n      totalSupply = 1000;\n      approve = false;\n  }\n}\n",
  "sourcePath": "/home/arti/htb/chainsaw/ChainsawClub/contracts/ChainsawClub.sol",
  "compiler": {
    "name": "solc",
    "version": "0.4.23+commit.124ca40d.Emscripten.clang"
  },
  "schemaVersion": "3.0.0",
  "updatedAt": "2019-01-23T09:19:34.678Z",
  "devdoc": {
    "methods": {}
  },
  "userdoc": {
    "methods": {}
  }
}